:020000040800F2
:100000000000032021060008012300080323000844
:10001000052300080723000809230008000000004A
:10002000000000000000000000000000B1700008A7
:100030000B2300080000000041710008B9690008A6
:1000400071060008710600087106000871060008B4
:1000500071060008710600087106000871060008A4
:100060007106000871060008710600087106000894
:100070007106000871060008710600087106000884
:100080007106000871060008710600087106000874
:100090007106000871060008710600087106000864
:1000A0007106000871060008710600087106000854
:1000B0007106000871060008710600087106000844
:1000C0007106000871060008710600087106000834
:1000D0007106000871060008710600087106000824
:1000E0007106000871060008710600087106000814
:1000F0007106000871060008710600087106000804
:1001000071060008710600087106000871060008F3
:1001100071060008710600080D230008710600082A
:1001200071060008710600087106000871060008D3
:1001300071060008710600087106000871060008C3
:1001400071060008710600087106000871060008B3
:1001500071060008710600087106000871060008A3
:100160007106000871060008710600087106000893
:100170007106000871060008710600080000000002
:100180007106000871060008710600087106000873
:100190007106000871060008710600087106000863
:0C01A00019230008710600082523000840
:1001B00010B5054C237833B9044B13B10448AFF3A1
:1001C00000800123237010BD800300200000000088
:1001D0005437020808B5034B1BB103490348AFF37A
:1001E000008008BD0000000084030020543702088E
:1001F00001F0FF01102A2BDB10F0070F08D010F8D8
:10020000013B013A8B422DD010F0070F42B3F6D1DB
:10021000F0B441EA012141EA014122F007047FF0F4
:1002200000070023F0E80256083C85EA010586EA4B
:10023000010685FA47F5A3FA87F586FA47F6A5FA87
:1002400087F68EB9EED1F0BC01F0FF0102F0070293
:1002500032B110F8013B013A83EA010313B1F8D13E
:100260000020704701387047002D06BF354603381F
:10027000073815F0010F07D1013015F4807F02BF58
:10028000013015F4C03F0130F0BC0138704700BFA9
:100290007BB972B90029BEBF00204FF0004106E0D3
:1002A00008BF00281CBF6FF000414FF0FF3000F086
:1002B000B5B9ADF1080C6DE904CE002909DB002BBE
:1002C0001ADB00F04DF8DDF804E0DDE9022304B0AC
:1002D0007047404261EB4101002B1BDB00F040F80E
:1002E000DDF804E0DDE9022304B0404261EB4101A6
:1002F000524263EB43037047524263EB430300F007
:100300002FF8DDF804E0DDE9022304B0404261EBA0
:1003100041017047524263EB430300F021F8DDF8DE
:1003200004E0DDE9022304B0524263EB430370476B
:1003300053B94AB9002908BF00281CBF4FF0FF314C
:100340004FF0FF3000F06AB9ADF1080C6DE904CE52
:1003500000F006F8DDF804E0DDE9022304B07047A0
:100360002DE9F047089D0C46002B4ED194468C4554
:100370008646B2FA82F262D94AB1C2F120039140B4
:1003800020FA03F30CFA02FC194300FA02FE4FEACA
:100390001C471FFA8CF6B1FBF7F44FEA1E4307FB2C
:1003A000141143EA014304FB06F199420AD91CEBFC
:1003B000030304F1FF3080F01281994240F20F8173
:1003C000023C6344591A1FFA8EF3B1FBF7F007FBA6
:1003D000101143EA014300FB06F69E420AD91CEBCA
:1003E000030300F1FF3180F0FC809E4240F2F9806F
:1003F000634402389B1B40EA044000211DB1D340F6
:100400000022C5E90032BDE8F0878B4205D90DB165
:10041000C5E9000100210846F5E7B3FA83F1002998
:1004200046D1A34202D39042C0F0F080861A64EB1A
:1004300003030120002DE6D0C5E90063E3E7002AAD
:1004400040F09080A1EB0C044FEA1C481FFA8CF797
:100450000121B4FBF8F64FEA1E4308FB164443EAB9
:10046000044307FB06F0984208D91CEB030306F18E
:10047000FF3402D2984200F2CD8026461C1A1FFAA1
:100480008EF3B4FBF8F008FB104443EA044300FB8E
:1004900007F79F4208D91CEB030300F1FF3402D297
:1004A0009F4200F2B0802046DB1B40EA0640A5E7F1
:1004B000C1F120068B4022FA06F71F4320FA06FC02
:1004C00004FA01F343EA0C03F44000FA01F8380C93
:1004D0004FEA1349B4FBF0FE1FFA87FC00FB1E44F1
:1004E00049EA04440EFB0CF9A14502FA01F20AD9CB
:1004F0003C190EF1FF3A80F08480A14540F28180E2
:10050000AEF1020E3C44A4EB09041FFA83F9B4FBDC
:10051000F0F300FB134449EA044403FB0CFCA4453C
:1005200007D93C1903F1FF3067D2A44565D9023BD6
:100530003C4443EA0E40A0FB0293A4EB0C049C4213
:10054000CE469C4651D34ED055B1B8EB0E0364EB6A
:100550000C0404FA06F6CB401E43CC40C5E9006407
:10056000002150E7C2F1200320FA03F10CFA02FC4B
:1005700024FA03F394400C434FEA1C4800FA02FEAD
:100580001FFA8CF7B3FBF8F008FB1031230C43EA99
:10059000014300FB07F1994208D91CEB030300F16A
:1005A000FF362CD299422AD9023863445B1AA4B28E
:1005B000B3FBF8F108FB113344EA034401FB07F3F2
:1005C000A34208D91CEB040401F1FF3613D2A34265
:1005D00011D902396444E41A41EA004139E704467A
:1005E000F0E6084606E7C845AED2B9EB020E63EB6B
:1005F000070C0138A8E73146EDE7034699E7304696
:10060000D4E7D6467FE7634402384DE706462346E3
:1006100008460FE7023E634430E700BF704700BF63
:10062000DFF834D0002103E00C4B5B584350043119
:100630000B480C4B42189A42F6D30B4A02E00023B7
:1006400042F8043B094B9A42F9D303F035FE22F0FD
:1006500011FB01F0CFF8704700000320E0AA070863
:10066000000000207001002080030020A035012040
:10067000FEE7704708B500F0A9FDBDE8084000F0AE
:100680002DBD00F0A5BD704710B50421044621F032
:10069000FBF8204610BD000038B50C4B0C4C188000
:1006A0000C4B822019806368984740F611039842EA
:1006B0000AD1094D23682C60822098472B6882203C
:1006C000DB689847002038BD0120FCE7A603002026
:1006D00058000020A4030020A80300204FF4A071BC
:1006E000F020FFF7D9BF0000F7B5334D2B68044663
:1006F0001B6982209847208000284AD02B680DF182
:1007000006025B6901A982209847BDF8063040F6D1
:10071000746293423FD9ADF80620BDF80630D21A74
:1007200092B20A2A3DD90B23B2FBF3F2234B1B886A
:100730009A4201D9013B9AB2BDF8043040F6B83173
:100740008B4230D8C3F571630E339BB20F21B3FBDC
:10075000F1F31B4909888B4201D901398BB2194E3B
:10076000194D30682F68834281B28CBF591AC91A5B
:10077000B8B2BA428CBF101A801A89B280B2014452
:100780000529C8BF33603368C8BF2A6063802B68FF
:10079000A38003B0F0BDB32B9CBFB423ADF80630EB
:1007A000BBE70022C8E7C3F56D6308339BB20E2B8D
:1007B000CCD80023D3E700BFA8030020A403002067
:1007C000A6030020A00300209C03002037B5684644
:1007D0000D461446FFF788FFBDF8000030B1BDF8A4
:1007E00002302B60BDF804302360012003B030BD1F
:1007F000032821D8DFE800F0020B12190F4B1A680A
:10080000B2FA82F2520904210D4803F0EBBF0B4B00
:100810005A68B2FA82F252090821F5E7074B9A6842
:10082000B2FA82F252091021EEE7044BDA68B2FA0A
:1008300082F252092021E7E7704700BFAC03002095
:1008400000100240032821D8DFE800F0020B121943
:100850000F4B1A68003A18BF012204210D4803F01B
:10086000C1BF0B4B5A68003A18BF01220821F5E7B7
:10087000074B9A68003A18BF01221021EEE7044B9B
:10088000DA68003A18BF01222021E7E7704700BF6D
:10089000AC0300200010024003280DD8DFE800F070
:1008A0000206080A0421054803F0A1BF0821FAE75F
:1008B0001021F8E72021F6E7704700BF0010024042
:1008C00008B5032811D8DFE800F0020A0C0E042155
:1008D000074803F081FF431E5842584108BD0821D4
:1008E000F6E71021F4E72021F2E70020F3E700BF4C
:1008F0000010024070B5084D00240126E0B2FFF759
:10090000DFFF18B12B68012B18BF2E600134052CB6
:1009100005F10405F2D170BDAC030020012380F87D
:10092000781080F87930704700207047034B41649D
:10093000003918BF01211970704700BF5F280120DE
:1009400000207047836B0BB10846184770474FF67D
:10095000FF707047406803689B691847704770478D
:100960007047000010B5044600F040FD23680349BD
:10097000D3F88C302046BDE810401847000000D066
:1009800008B503680446D3F88030984723682046AA
:100990009B6F984700F0ECF8236820461B6F984740
:1009A000292001F0CDF900F0E3F8236820461B6F01
:1009B0009847F8E710B5044609F056F92368204631
:1009C000D3F8AC30BDE81040184700F0F1BC00F09F
:1009D000F5BC00F029BD00F0C7BC00F039BD00F047
:1009E00041BD00F0CBBC08F0ABBB10B57C21044688
:1009F00020F04AFF204610BD10B590F8341090F852
:100A000078400C4B8C421A7809D03AB90A4A0B4903
:100A10001488088810800C8001221A7010BD002AEA
:100A2000FCD0054A05491488088810800C800022F3
:100A3000F3E700BF58280120542801205628012040
:100A400070B50D46194635B9094B0A4A0A4840F2B5
:100A5000D22121F05FFEC0E90F52084B003A18BFC7
:100A600001221A700368BDE87040D3F88C30184733
:100A7000C4370208FC3702084A3802085E28012001
:100A800008B5094B1B888B4203D8084B1B8893423F
:100A900005D9074B074A08489E2121F03BFE074B2A
:100AA0001980074B1A8008BD5428012056280120C0
:100AB0008F380208F23802084A3802085A28012002
:100AC0005C280120034690F87A0018B15868036842
:100AD0001B68184770470000012108B5002208462E
:100AE00005F0F7FF0A4B186028B90A4B0A4A28217B
:100AF0000A4821F00FFE00220421012006F091F89F
:100B0000074B186018B9074B034A2C21F0E708BDC2
:100B1000C0030020103A0208593A0208883A020835
:100B2000BC030020D53A0208024B4FF0FF31186891
:100B300006F019B8C0030020014B186806F03FB852
:100B4000C0030020024B0021186806F00CB800BF5B
:100B5000C0030020FFF7F0BF0348044900680023EA
:100B60001A4606F099B800BFBC030020040000201C
:100B700013B5084C00231A4601A9206806F0BDF8F9
:100B800020684FF0FF33002201A906F0B6F802B04A
:100B900010BD00BFBC03002003685B6C1847012038
:100BA000704703689B6A1847FEE740F2EF307047D2
:100BB000054B0360054B4FF08062C3F88820BFF3FC
:100BC0004F8FBFF36F8F7047743C020800E100E065
:100BD00010B504464FF45A61FFF7EAFF204620F0B3
:100BE00053FE204610BD000082B0002301930E4B3F
:100BF0001A6B42F400021A631A6B02F400020192AB
:100C0000019A1A6942F400021A611A6922F4000278
:100C10001A61064B064A1A61064A5A61064B4FF0A2
:100C200080629A6002B07047003802404C19002080
:100C3000890E0008A90B000800E100E008B50A28A9
:100C400009D8DFE800F006100E0808080810101098
:100C50001000022008BD054B054A0648902121F0EE
:100C600059FD0020F6E70120F4E700BF173B02081A
:100C7000323B02087D3B020838B50C46887FFFF7FF
:100C8000DDFFA58AE28A164B2169586342EA0542D4
:100C90005A64628BD963521B1A642568082D0ED1E1
:100CA0009A611A615862207F0E4A42EA0062DA6154
:100CB000E2681A620C4A5961D9601A6038BD002294
:100CC000D8611A61E1680A0A480902F4784200F41E
:100CD000FC600243C1F3C4010A439A63034AECE790
:100CE00000B00240090001000123020001230300BB
:100CF00008B50B280BD8DFE800F00612100A0A0A24
:100D00000A0808080808022008BD0520FCE7054B72
:100D1000054A06486F2121F0FDFC0020F4E7012080
:100D2000F2E700BF173B0208C83B02087D3B020800
:100D30002DE9F04191F81D800C464046FFF7D8FFA1
:100D4000A77F05463846FFF7D3FF06463846FFF72C
:100D500075FFA18A628B444B521A1A649A61228BE6
:100D6000521A1A61E28A586342EA01425A642169BE
:100D70006268D963DA602068802828D0227F0FD883
:100D8000202867D0402865D004281AD0364B45EA81
:100D9000026545F40035B845DD6161D0334A44E071
:100DA000B0F5807F04D0B0F5007FEFD1304800E08F
:100DB000304840EA0262DA61E2681A625E625961B2
:100DC00032E045EA026242F40032DA61F6E7A068F6
:100DD000021DDA62227F45EA026545F40035DD61D5
:100DE0005E625961017841B1012921D0224B234A29
:100DF00023484FF48D7121F08DFCDA69418822F48B
:100E00007F42013922F0100242EA0122DA61012117
:100E1000154BDA6942F02002DA61DA699206FCD4F5
:100E200010229A600029B9D0164A1A60BDE8F081F4
:100E3000B2F1FF01DA69408822F47F4200F1FF300D
:100E400022F0100242EA002242F0100218BF0121F3
:100E5000DA61DDE745EA0262034B42F40032B4E7AF
:100E600042F20132E1E700BF00B00240012301007D
:100E7000090002000A000200123C02082C3C020891
:100E80007D3B020801230200024B1B68586803687F
:100E90005B6918476028012070B5044625460A4B57
:100EA0000C30002660602672667245F8203B602296
:100EB000294609F031F804F55A63EE6024359D4265
:100EC000FBD1204670BD00BF743C0208034B1A687A
:100ED000D207FCD423229A60704700BF00B00240C2
:100EE0007047000030B50F4C2568ED07FCD4232572
:100EF0000904A56041F001010225FF2B65636164CF
:100F0000E0630AD00849656241EA0363E361074B85
:100F100022626061E060236030BDE561039BA363F2
:100F2000034BF8E700B00240090001000100020095
:100F30000100030030B50E4C2568ED07FCD42325D5
:100F40001204A56042F001020225FF2B6563626472
:100F5000E063E16008D01B0643F00213E361054B38
:100F600065626061236030BD034BE3610123F9E7F3
:100F700000B0024001000200020002FF30B50B4C3D
:100F80002568ED07FCD4232512041B06A56043F455
:100F90000033022542F0010265636264E063E160B0
:100FA000E361034B65626061236030BD00B00240C5
:100FB000010002000120704738207047382303FBEE
:100FC000010008307047382303FB010008307047E8
:100FD000012070474FF40B7070474FF40B7303FB05
:100FE0000100083070474FF40B7303FB0100083019
:100FF0007047012070471020704700EB0110083047
:10100000704700EB011008307047084601F008BC3B
:1010100010B5034B0360044607F0E7FD204610BD02
:101020002C3D020810B50446FFF7F2FF2046402190
:1010300020F02AFC204610BD10B5034B0360044687
:1010400007F0D3FD204610BDF83C020810B5044659
:10105000FFF7F2FF20464FF40D7120F015FC2046FB
:1010600010BD000010B5034B0360044607F0BDFD42
:10107000204610BDC43C020810B50446FFF7F2FF3D
:101080002046182120F000FC204610BD10B5084B6A
:101090000360044600F51870FFF7BAFF04F12C0056
:1010A000FFF7CAFF04F11400FFF7DCFF204610BD74
:1010B000603D020808B50248FFF7E8FF08BD00BF21
:1010C0009412002010B50446FFF7E0FF204640F2DE
:1010D000144120F0D9FB204610BD00002DE9F3415A
:1010E00001F09EF9054601F09FF9002401462346D0
:1010F00028462246009411F06BFB274B274A1A60C2
:10110000204602F0B7FB264D264B274A27489A6017
:1011100011F0C6FA2B68BFF35B8FDB0735D4284686
:1011200020F0B4FB88B3224C224B236004F52E76CA
:1011300004F1140004F12C0804F518776060C4F879
:101140000880E760266107F051FD1B4B6361404654
:1011500007F04CFD194BE362384607F047FD184B8A
:10116000C4F8603204F5287002F00EFC224604F543
:101170002871304602F0FEFB304601F051FB114869
:1011800021F0E6FA284620F08DFB0F4802B0BDE8BA
:10119000F041FFF7E7BB00BFC42801204004002056
:1011A0009012002060040020440400200800002069
:1011B00094120020603D0208C43C0208F83C02087A
:1011C0002C3D0208B5100008C40300207047000041
:1011D0000148FFF7D5BB00BFC403002070B5244E03
:1011E000244C254D254B23603046FFF755FE2846FD
:1011F00016F0F4FB22480FF02DF8224B2248DC6059
:1012000000224FF48071C3E9121220491A86C3E903
:101210001A121F4999671F4983F858200B60F02163
:1012200001801D485A6601801C4883F870204FF4E5
:10123000A071C3E90422C3E90622C3E90822C3E975
:101240000A22C3E90E22C3E91022C3E91422C3E92A
:1012500017225A67C3E901650180114801801149CD
:101260000A70012283F834200F4A1A6070BD00BF53
:10127000EC0400208C12002060040020B437020827
:1012800044040020C4030020542801200100000170
:1012900000000101602801205A2801205628012061
:1012A0005C28012058280120403902080148FFF736
:1012B0007FBC00BFEC040020002070478180704795
:1012C000C180704701817047418170477047704706
:1012D00070477047704710B4C4880368121B848835
:1012E0005B6D091B12B25DF8044B09B218474FF64B
:1012F000FF7383814FF0FF3303621368C361106093
:101300007047002070478B888380012070477047AA
:1013100080F82610704790F82600704710B500221C
:10132000B1F90840B1F90A10028042808480C1807E
:1013300010BD0022028042808280C2807047017707
:10134000704780ED080A704780F82410704780F8D5
:101350002510704701207047983070478C307047D7
:101360008430704770470000034B902283F85A2363
:1013700083F85823704700BF00E100E0094A0A499A
:10138000D3680A48C3F30A03013B9BB20B8011697F
:10139000C1F30A01013901801364536B43F0010367
:1013A0005363704700680140AA160020A816002069
:1013B000014BD3F8AC00704700680140024B01229A
:1013C000C3F8AC105A62704700680140704770471C
:1013D00010B52C21044620F057FA204610BD10B558
:1013E000BC21044620F050FA204610BD70B50446DA
:1013F00007F0FBFE23685D6E0DF0D8FD0146204628
:10140000A8472368054AD3F888502046AC460023F5
:10141000BDE87040A2F51631604700BF00B004D0AF
:1014200007F0CABE07F0D4BE07F090BE07F0F1BFC8
:1014300090F8252012B103685B691847704790F84F
:1014400025201AB190F8242002B1186070470000DE
:10145000034B4FF080629A604FF080729A60704741
:1014600000E100E0084B4FF08062C3F88820BFF332
:101470004F8FBFF36F8F4FF08072C3F88820BFF398
:101480004F8FBFF36F8F704700E100E070B500230E
:10149000124E8380124B0360336893F85820054640
:1014A0000AB1D86C00B998680368DB6A984733685A
:1014B000B0FA80F4D86C640930B10368DB6A9847ED
:1014C000002808BF44F001042CB9064B064A07481F
:1014D0002C2121F01FF9284670BD00BF6028012093
:1014E000703E02086C3D0208CA3D0208033E020835
:1014F00070B5244E3568BFF35B8F15F001053FD101
:10150000304620F0C3F900283AD01F4C1F4B25610C
:1015100004F13400C4E90035C4E90255E584A5624C
:10152000A5850FF0F6F804F158000AF0EFF8184B13
:10153000A3652046174B40F8843BFFF7A7FF164BE7
:10154000C4F884302433C4F88C306423C4E92835CB
:101550000023C4F8AC30C4F8B030C4F8B430C4F8D8
:10156000B8300E480E4BC4F89050C4F89C50C4F8E4
:10157000A850C4F8983021F0EBF8304620F092F9EA
:10158000014870BDAC160020B01600206C4E020859
:10159000903E0208083F0208204E0208651300082A
:1015A000004E020810B5144C236823B3134B144AA1
:1015B0001B6C11888B4213D1124B198803F024FF46
:1015C000226892F86A30013382F86A30FFF7C4FA71
:1015D000206808F049FBBDE810400020FFF708B97B
:1015E00003F012FF206803681B6A9847BDE81040AB
:1015F0000020FFF727B910BD6028012000680140D6
:10160000AA160020A816002007B5064BADF8060064
:101610001B68054801220DF1060104F05BFC03B0D4
:101620005DF804FB18000020F8170020034B1B682E
:1016300000225A625A6A8242FCD370477C1700200B
:1016400070B502F06DFE204D04460421284603F0DB
:10165000C3F8012831D01C4E18250024012208218E
:10166000304603F0BFF80120FFF7E0FF844000227E
:101670000821304603F0B6F80120FFF7D7FF042118
:10168000304603F0A9F8013D012808BF013415F0E8
:10169000FF05E3D101220C48082103F0A3F8012043
:1016A000FFF7C4FF082108482A4603F09BF80120F1
:1016B000FFF7BCFF84F4000070BD02F031FE001B98
:1016C000C828C2D90020F7E70018024008B5FFF784
:1016D000B7FF0D4B1B68C31A07EE903A0B4B93ED07
:1016E000006A0B4BD3ED006A86EE267AF8EEE77AB5
:1016F000DFED086A67EE877A87EEA67AFDEEC77A95
:1017000017EE900A08BD00BF140000201000002052
:101710000C00002000401C4607B5012208210E489D
:101720000E4C03F05FF80A2002F000FE0A48002287
:10173000082103F057F80A2002F0F8FDFFF7C6FF72
:101740000A2301900022206801A905F0A5FA0A20C9
:1017500005F0B3F9F2E700BF00180240701700204F
:1017600030B595B0102200210AA821F0DAF9002145
:10177000142203A821F0D5F900251C4B01951A6C01
:1017800042F080521A641B6C194A03F08053019393
:10179000019B0295136823F4404343F48043136094
:1017A000136803F440430293029B01224FF48033F9
:1017B0000224CDE908234FF480034822CDE90E43EB
:1017C00008A80423CDE91032CDE9124303F03AFE14
:1017D0000F23CDE9033421464FF4805303A8CDE90C
:1017E0000635059504F00AF815B030BD0038024002
:1017F000007000402DE980489BB002F06BFDFFF7C0
:10180000AFFF142200210DA8002421F08AF9C74B54
:1018100000941A6BC64842F010021A631A6B02F069
:1018200010020092009A01941A6B42F020021A638F
:101830001A6B02F020020192019A02941A6B42F094
:1018400080021A631A6B02F080020292029A0394D9
:101850001A6B42F004021A631A6B02F0040203923C
:10186000039A04941A6B42F001021A631A6B02F095
:1018700001020492049A05941A6B42F002021A6360
:101880001A6B02F002020592059A06941A6B42F056
:1018900040021A631A6B02F040020692069A0794FD
:1018A0001A6B42F008021A631B6B03F008030793DC
:1018B00022463C21079B02F095FF9E4822460421C8
:1018C00002F090FF22469C484FF44051012602F05E
:1018D00089FF4FF003093C239548CDF840900DA9AE
:1018E00002274FF00408CDE90D360F9402F090FE68
:1018F00090480F940DA9CDE90D86109702F088FE4F
:101900004FF440538C480DA9CDE90D36CDE90F4772
:1019100002F07EFE22468948082102F063FF8748D4
:101920000F940DA90825CDE90D8402F071FE8348BE
:101930000DA94FF4C04ACDE90D56CDE90F4402F090
:1019400067FE7E480DA9CDE90DA6CDE90F4402F052
:101950005FFE22465146794802F044FF4FF0600A8C
:1019600075480DA9CDE90DA6CDE90F4402F050FE52
:10197000514622467048DFF8F8A102F033FF704864
:10198000704B036002F038FD6F4A704BCAF820407C
:10199000CAE9002350464FF48043CAE90434CAE937
:1019A0000244CAE9064403F02BF91021504603F023
:1019B0006FFB2146504603F08AFB65486549DFF816
:1019C000B4A184624FF482734FF4007CC0E9001329
:1019D0001823C0E906C30A23C362C0E90244C0E970
:1019E0000444C0E9084404F019FA5B4A0D97CAE9B7
:1019F00000264FF0100B4022CAE904B24FF4C07227
:101A0000CAE906244FF40062CAE908244FF40052E0
:101A1000CAF828200DA907225046CDE91029CAE9A5
:101A20000248CDE90E28CDE9127704F0DBF84FF635
:101A3000FF7209A95046CDE90965CDE90B64089408
:101A400004F0F0F8304602F071FC4FF6FF7209A97D
:101A50005046CDE90975CDE90B6404F0E3F84FF683
:101A6000FF7209A95046CDE90995CDE90B8404F030
:101A7000D9F84FF40C720892089A0C9209A94FF603
:101A8000FF725046CDE909850B9604F0CBF840F281
:101A90006A51504604F0E4F8342221460DEB02006E
:101AA00021F03FF82D4D2E4B2C61C5E90034092360
:101AB000C5E905361D2340F20D1EC5E9073940F280
:101AC0004313C5E909E3284640F2471340F21719CA
:101AD000C5E90B93C5E90244AC8685F8364003F0AE
:101AE0009BFBFF21F022CDE912144FF4806A0521FF
:101AF0004FF4A073CDE90E24CDE914A1CDE916422F
:101B00000DA922462846CDE91037164D18930D949D
:101B1000ADF864408DF8664003F049FC124B2B6031
:101B20001B6898472B68114DDB6825E000380240A0
:101B30000010024000080240000C02400018024061
:101B40008C19002000300240005C0040A08601009B
:101B5000F817002000500140400100A0501800205C
:101B6000006801406C170020200000204C19002064
:101B7000F8180020C417002098472A4B2846C5E9CA
:101B80000034C5E90274C5E90A47C5E90C4402F00E
:101B900043FC3146284602F0F7FC234DFEF76AFD70
:101BA0005A462146DFF8A4B00DA820F0BAFF47231B
:101BB000C5E900B328464FF0FF33C5E90334CDE94A
:101BC0000944AC60AC6104F04BFD4FF480530DA9A7
:101BD00028460D9304F07AFD09A92846CDE9094469
:101BE00004F00EFEFEF745FD04F0F4FE0F4A4146F8
:101BF0000A2005F016F80E4B0E4A186021460E48D2
:101C000004F014FF0D4B0E4A186021460D4804F0F5
:101C10000DFF0D4B186004F0EFFE284604F0ACFBFE
:101C2000FEE700BF00B002407C1700206C3F0208B6
:101C300070170020A83F0208191700087817002025
:101C4000843F02088306000874170020001000403B
:101C5000704770477FB5094B8DF817201B680293BA
:101C60000DF117020123009201930A460146044830
:101C700003F06EF807B05DF804FB00BF1C00002005
:101C8000F81800207FB500238DF81730084B1B682B
:101C900002930A4601230DF11701009101930146B9
:101CA000044803F0E5F89DF8170007B05DF804FB61
:101CB0001C000020F81800201FB5084C2468009272
:101CC000CDE901340A4601230146054803F0D0F866
:101CD000003818BF012004B010BD00BF1C00002058
:101CE000F818002002F022BB10B5064C0022204656
:101CF000042102F077FD20460122BDE810400421B6
:101D000002F070BD0008024038B50B4D04460122B8
:101D10000A484FF4005102F065FD002204212846D4
:101D200002F060FD2046FFF76FFC28460122BDE867
:101D30003840042102F056BD00080240000C024069
:101D400038B50B4D044600220A484FF4005102F00A
:101D500049FD00220421284602F044FD2046FFF7F9
:101D600053FC28460122BDE83840042102F03ABD68
:101D700000080240000C0240F7B5144E144F05460F
:101D80000C4630460022042102F02CFD00224FF4C4
:101D90000051384602F026FD2846FFF735FC0D4B72
:101DA0000D481B68224601A904F040FA384601227A
:101DB0004FF40051019C02F015FD30460122042130
:101DC00002F010FD204603B0F0BD00BF0008024045
:101DD000000C024018000020F817002002F0A6BAFC
:101DE0000268034B9A4201D102F08EBA704700BFDD
:101DF000001000407047000082B00E4B002200929D
:101E0000596C41F480415964596C01F4804100914E
:101E100000990192196C41F0805119641B6C03F018
:101E200080530193019B0F216FF0010002B002F07B
:101E3000A3BA00BF003802400268094B9A4282B040
:101E40000BD100230193074B1A6B42F480521A63A3
:101E50001B6B03F480530193019B02B0704700BFDA
:101E6000003002400038024007B50F4B02689A422A
:101E700016D10022A3F5F0430192196B41F4000141
:101E800019631B6B03F40003019305215A20019B86
:101E900002F072FA5A2003B05DF804EB02F09EBA29
:101EA00003B05DF804FB00BF00B002402DE9F04331
:101EB000044689B01422002103A820F032FE2268D3
:101EC000244B9A4243D1244C244800250095236B8F
:101ED00043F004032363236B03F004030093009B8C
:101EE0000195236B43F001032363236B03F001038C
:101EF0000193019B4FF012094FF400734FF001085A
:101F00000327042603A9CDE90339CDE90587079600
:101F100002F07EFB4FF480731148079603A9CDE9C8
:101F20000339CDE9058702F073FB0295236C43F476
:101F300000032364236C03F400030293029B236ACF
:101F400043F400032362236A23F40003236209B0ED
:101F5000BDE8F083005C0040003802400008024009
:101F600000000240F0B599B004461422002107A8F1
:101F700020F0D7FD30220DEB0200002120F0D1FD32
:101F800022685E4B9A4240F0B78008230C93C0232E
:101F90001093042312930CA84FF40033159303F00D
:101FA000F5FC08B1FFF726FF554B56480024009476
:101FB0005A6C42F080625A645A6C02F0806200925D
:101FC000009A01941A6B42F020021A631A6B02F015
:101FD00020020192019A02941A6B42F001021A63E4
:101FE0001A6B02F001020292029A03941A6B42F0F9
:101FF00002021A631A6B02F002020392039A04941B
:102000001A6B42F040021A631A6B02F0400204920B
:10201000049A05941A6B42F004021A631A6B02F0D8
:1020200004020592059A06941A6B42F008021A639C
:102030001B6B03F00803069302250E26069B0B96E6
:102040004FF4806307A9CDE90735CDE9094502F0D2
:10205000DFFA41F658032C480B9607A9CDE907355E
:102060000927CDE9094502F0D3FA032327480B9746
:1020700007A9CDE90735CDE9094502F0C9FA4FF4C2
:10208000706322480B9607A9CDE90735CDE90945CC
:1020900002F0BEFA4FF40C631D480B9607A9CDE978
:1020A0000735CDE9094502F0B3FAC02319480B966C
:1020B00007A9CDE90735CDE9094502F0A9FA0823BA
:1020C00015480B9607A9CDE90735CDE9094502F07A
:1020D0009FFA4FF4A0530E480B9707A9CDE9073597
:1020E000CDE9094502F094FA58202246052102F074
:1020F00043F9582002F072F919B0F0BD00680140B0
:102100000038024000140240000002400004024077
:102110000018024000080240000C024010B50446BE
:1021200088B01422002103A820F0FBFC2268144B85
:102130009A4223D103F56843002101915A6C11485A
:1021400042F480125A645A6C02F480120192019A8D
:1021500002911A6B42F020021A631B6B03F02003FA
:102160000293029B4FF4607202230321CDE9032303
:102170000523CDE9061303A902F04AFA08B010BD01
:1021800000500140001402402DE9F04186B00023C8
:1021900003932B4B1C68002C4FD14FF00108C3F860
:1021A0000080284B00949A6B274842EA08029A6301
:1021B0009B6B03EA08030093022703260C25009B70
:1021C00001A94FF63F03CDE90137CDE9046502F0DF
:1021D0001FFA1E48059501A9CDE90187CDE90346FF
:1021E00002F016FA48F233131948059501A9CDE912
:1021F0000137CDE9034602F00BFA4FF68373154819
:10220000059501A9CDE90137CDE9034602F000FAB1
:102210004CF203731048059501A9CDE90137CDE9CA
:10222000034602F0F5F960230C48059501A9CDE9B4
:102230000137CDE9034602F0EBF906B0BDE8F081C5
:1022400094190020003802400014024000080240A7
:102250000018024000100240000C0240000402403E
:1022600070B588B000230293204B1A6C42F0100224
:102270001A641B6C03F010030293054601A903A81E
:10228000029B03F065FB069B4BBB03F051FB184E12
:10229000184B336040F2E733F360174BB0FBF3F3B6
:1022A000013B7360304600233361B360B36104F0D7
:1022B000D7F9044680B9304604F094F8044658B97A
:1022C000362002F08BF80F2D0DD8224629463620F5
:1022D00002F052F8094B1D60204608B070BD03F0B3
:1022E00027FB4000D3E70124F6E700BF0038024097
:1022F000981900200010004040420F008800002084
:102300007047FEE7FEE7FEE7FEE77047014804F08E
:10231000A7B800BF98190020014802F0EBBF00BF2A
:1023200050180020014802F0A5B800BF4C19002049
:102330000120704708B520F097FC162303604FF08A
:10234000FF3008BD08B520F08FFC16230360FEE7C0
:1023500070B50D4614460E46731B9C4201DC2046A8
:1023600070BDAFF3008006F8010BF5E770B50D46C0
:1023700014460E46731B9C4201DC204670BD16F8C5
:10238000010BAFF30080F5E74FF0FF3070474FF4DB
:1023900000534B60002070470120704700207047B9
:1023A0000A4A116808B5034609B90949116010685D
:1023B000694603448B4206D920F056FC0C23036087
:1023C0004FF0FF3008BD1360FCE700BFE0190020AC
:1023D000A0350120704708B5042918D8DFE801F0BE
:1023E00003070B0F130001F091FA006808BD01F01C
:1023F0008DFA4068FAE701F089FA8068F6E701F0A3
:1024000085FAC068F2E701F081FA0069EEE7002082
:10241000ECE710B5042104461FF036FA204610BD43
:1024200000487047E03F02080720704713B50024BA
:1024300051B1036801948DF8034001AA9C680DF125
:102440000303A04702B010BD0846FBE7C0897047F0
:10245000008A7047C088704780887047807A00F093
:102460007F007047807AC0097047002070470000E5
:102470009FED010A704700BF00000000704710B5D3
:10248000082104461FF000FA204610BD704770472F
:1024900000F598730868496803C370477047704730
:1024A0004160704710B50022B1F90840B1F90A1037
:1024B000028042808480C18010BD70477047000058
:1024C000064BC0F84C310023C0F8503100F5A27320
:1024D000C0F84801C0F84031704700BF55260008D9
:1024E0000123037270477047704770477047014679
:1024F0004068036810315B6E184701464068036806
:1025000010311B6E1847704710B4C26841685410F0
:10251000034601EB6200D20748BF0A599B685DF889
:10252000044B48BFD35818470346406830B19A68F7
:102530001AB9D86800F0010070470120704710B543
:102540000C2104461FF0A0F9204610BD10B5102143
:1025500004461FF099F9204610BD10B54FF4AE7136
:1025600004461FF091F9204610BD10B538210446ED
:102570001FF08AF9204610BD10B5282104461FF02F
:1025800083F9204610BD10B50CF010FD0368BDE8BE
:102590001040DB6B1847000037B50446807A637A39
:1025A0000130C0B29842A07205D9012323720023E2
:1025B000A37203B030BDB4F90C2000210EF034FD3D
:1025C000C30706D500284FF6FF73C8BF0123184480
:1025D00000B2144BE0811988258B83B21248B0F900
:1025E0000000ADF80600CA1A60682B445B1A12B2EC
:1025F000ADF8043003682283ADF8002000221B6987
:10260000ADF8022069469847A37A012BD1D1074B38
:102610001B78002BCDD00CF0C9FC03B0BDE83040D6
:102620000CF0CABC54280120562801205E28012045
:1026300010B50446D0F8400158B10368DB689847EC
:1026400038B1D4F8400103689B6898470023C4F868
:10265000403110BD2DE9F14FD0E9556A0746B06809
:1026600003681B6A9847B0F5EE7F05D2444B454A94
:10267000A321454820F04EF8706803681B6A98470C
:102680000F2803D8414B3F4AA421F2E7F0680368C2
:102690001B6A98470B2803D83D4B3A4AA521E8E727
:1026A0000CF084FCDFF8F09004300CF0CCFCD9F88E
:1026B000000010B10368DB689847D9F8000010B13A
:1026C00003681B689847DFF8D480D8F8000010B181
:1026D00003685B699847D7F83C0110B103685B68F1
:1026E0009847D8F8000010B103681B689847D7F8DE
:1026F0003C0110B103689B689847F06803680021AB
:102700005B6A98474FF0000B224BC0F804B00446B8
:1027100080F808B00360B068036859465B6A984760
:10272000054601F07DFA7068036859465B6A984770
:102730002946064601F04CFA331DC7F83C61C9F83A
:102740000040C8F80050CAF800302B68C6F808A04E
:102750002846DB68EE639847336830461B68984725
:10276000214628460EF05AFC236820461B699847EC
:1027700023685B69204601B0BDE8F04F184700BFF1
:102780007C4002080A410208DC4102082342020898
:10279000C642020810460208A8280120A4280120E9
:1027A000044B1B6893F858200AB1D86C00B998689C
:1027B000704700BF60280120F8B5174604460E4652
:1027C0000CF0DEFC124B1C60124B2360124B0025F8
:1027D000C4E95135114BC4E9535518680368012108
:1027E0009B68C4E94F55C4E955769847284601F0DF
:1027F00041F8FFF7D5FF16F044FFFFF7D1FF16F0C1
:10280000BBFFFFF7CDFF16F0C3FF2046F8BD00BFAA
:10281000B4280120BC450208A44502086028012014
:10282000064BC0F84C310023C0F8503100F5A273BC
:10283000C0F84801C0F84031704700BF5526000875
:10284000064BC0F84C310023C0F8503100F5A2739C
:10285000C0F84801C0F84031704700BF212A000885
:10286000064BC0F84C310023C0F8503100F5A2737C
:10287000C0F84801C0F84031704700BFE5280008A3
:10288000002370B5C0E90533C0E90733C0E9093357
:10289000C0E90B33436003728372C3814FF48073CA
:1028A00043630C4B03610C4B4172B3F900100B4BAB
:1028B0000B4AB3F90060026000F110050446818103
:1028C0002846FEF7FFFC28463146FEF7FDFC204671
:1028D00070BD00BF3C450208542801205628012045
:1028E000344602082DE9F047D0E9556A0746B0683A
:1028F00003681B6A9847B0F50B7F05D2414B424AEB
:10290000A32142481FF006FF706803681B6A9847BE
:102910000F2803D83E4B3C4AA421F2E7F068036835
:102920001B6A9847372803D83A4B374AA521E8E76E
:102930000CF03CFBDFF8E09004300CF084FBD9F89D
:10294000000010B10368DB689847D9F8000010B1A7
:1029500003681B689847DFF8C480D8F8000010B1FE
:1029600003685B699847D7F83C0110B103685B685E
:102970009847D8F8000010B103681B689847D7F84B
:102980003C0110B103689B689847F0680368002118
:102990005B6A984714210446FFF772FFB06803682A
:1029A00000215B6A9847054601F0B6F97068036834
:1029B00000215B6A98472946064601F085F9331DD8
:1029C000C7F83C61C9F80040C8F80050CAF80030A8
:1029D0002B68C6F808A02846DB68EE639847336882
:1029E00030461B689847214628460EF017FB23689F
:1029F00020461B699847236820465B69BDE8F0477D
:102A0000184700BF7C40020869430208DC41020805
:102A100023420208C6420208A8280120A428012057
:102A20002DE9F047D0E9556A0746B06803681B6A8C
:102A30009847B0F5EE7F05D2414B424AA321424868
:102A40001FF068FE706803681B6A98470F2803D858
:102A50003E4B3C4AA421F2E7F06803681B6A9847A2
:102A6000372803D83A4B374AA521E8E70CF09EFAFD
:102A7000DFF8E09004300CF0E6FAD9F8000010B16D
:102A80000368DB689847D9F8000010B103681B6839
:102A90009847DFF8C480D8F8000010B103685B697C
:102AA0009847D7F83C0110B103685B689847D8F89D
:102AB000000010B103681B689847D7F83C0110B1BB
:102AC00003689B689847F068036800215B6A984731
:102AD00014210446FFF7D4FEB068036800215B6A46
:102AE0009847054601F09CF87068036800215B6A0E
:102AF00098472946064601F06BF8331DC7F83C613C
:102B0000C9F80040C8F80050CAF800302B68C6F871
:102B100008A02846DB68EE639847336830461B6898
:102B20009847214628460EF079FA236820461B690B
:102B30009847236820465B69BDE8F047184700BF07
:102B40007C4002084D440208DC410208234202088E
:102B5000C6420208A8280120A4280120406A704724
:102B6000806A704770478B88C0690A68DB0A50F832
:102B700023001044704710B50446BAB1107B68B109
:102B8000537BD27A1B0203F4E0631A43236A03EBFC
:102B900082031A888A4202D193F9020010BD05D837
:102BA000013880B204330028F3D1F7E70020F5E7BD
:102BB00010B52C2104461EF067FE204610BD000013
:102BC00030B58BB00446BDF860500895BDF85C5038
:102BD00007959DF8505006959DF84C5005959DF829
:102BE000485004959DF8445003959DF84050029537
:102BF0009DF83C500195BDF8385000950DF046FE0B
:102C0000064B2360159BE361169B2362199B63624D
:102C10001A9BA36220460BB030BD00BF5846020885
:102C20007047704770477047704730B5036801813F
:102C300085B06D460146D3F884300446284698474F
:102C400095E807003C3484E8070005B030BD30B596
:102C50000368418185B06D460146D3F8843004464F
:102C60002846984795E807003C3484E8070005B0FB
:102C700030BD0022028042808280C280704780F88E
:102C80003610704770B5036804461B6B15469847AD
:102C90002368294620465B6EBDE870401847002037
:102CA0007047806C70477047704770477047704737
:102CB00030B4C26844685510034604EB6200D20782
:102CC00048BF62599B6830BC48BFD3581847034679
:102CD000406830B19A681AB9D86800F001007047AE
:102CE0000120704710B54C2104461EF0CDFD204652
:102CF00010BD10B5102104461EF0C6FD204610BDC3
:102D000010B54FF4EE7104461EF0BEFD204610BD16
:102D100008B5FEF78DFB08BD036870B55E6B124BFE
:102D20001B6804468DB22BB9104B114A6C21114817
:102D30001FF0F0FC1049828D0988914203D80F4B97
:102D40000B4A6D21F3E713F812200D4B1B6853F863
:102D5000220003681B6B9847291A3346204609B2A4
:102D6000BDE87040184700BFB8280120B8460208E7
:102D7000FA46020835470208BC2801207C470208B1
:102D8000C028012000F19803994270B504460D4611
:102D900003D10CF00BF9FFF763FD04F1E0039D4252
:102DA00005D123682046DB6ABDE87040184770BD36
:102DB00000224FF0FF31C0E900218260704770B5FA
:102DC000036804461B6B154698472368294620462E
:102DD0005B6BBDE87040184770B504461D46BDF9F1
:102DE0001060FFF7ECFF2368294620469B6B98474D
:102DF000236831462046DB6BBDE870401847000071
:102E0000F8B5194B018F1B888B4206462AD9174B00
:102E10001B682BB9164B174A17486C211FF07AFC18
:102E200013F81120154B1B6853F82250144B1868E7
:102E300000F05CFD2B6807469B6B284698472B6883
:102E400004469B6C3946284698472B6814FB00F4CF
:102E50005B6A394628469847A4B223181BB2A6F8E5
:102E60004630F8BD0023FAE7BC280120B82801202D
:102E7000B8460208FA46020835470208C028012071
:102E8000C42801204FF4807181840D4901600D49EF
:102E900081624FF6FF7181854FF47F01002241630B
:102EA0004FF0FF31C0E90122C0E90322C0E9052249
:102EB000C0E90722C0E9101202630287C2637047AB
:102EC000A44F0208744002082DE9F04F04468DB06B
:102ED0000DF0F8FE224600258D4BE56342F8403B9D
:102EE0008C4B2566C4E910354FF4807304F16C0BEC
:102EF000A4F86430FF230AA904F1980AC4E9125522
:102F0000C4E91455C4E9165584F86630A5664FF631
:102F1000FF7358460392ADF8283004F1E00908F039
:102F20005DFC504609F07AFC04F59478484609F0B7
:102F300075FC04F5B8774046FFF7A4FF3846FFF765
:102F4000A1FF754BC4F87031744BC4F8B851C4E993
:102F50007334734B0398C4E975354FF4A0732A4654
:102F600029460093F023FFF737FF261D4FF07F43DC
:102F70000399A366304605F04DFE042358460AA97E
:102F8000ADF8283009F013FB40F283132A46584667
:102F900000936FF019014FF48573FFF71DFF294669
:102FA000584608F0D6FB5946304605F033FE5046E9
:102FB000AF224621FFF703FF032309A950460AAABF
:102FC000ADF82830ADF8245009F0B8F90A22A4F879
:102FD000D0205046FFF714FF4FF0FF3B04F5E67397
:102FE000C4F8C03051463046C4E935BB039305F000
:102FF00011FE4846E3224621FFF7E1FE02220323A9
:1030000009A94846ADF824200AAAADF8283009F0ED
:1030100095F906234846A4F81831FFF7F1FE039B03
:10302000C4F8083149463046C4E947BB05F0F2FD13
:10303000532230214046FFF7C2FE0DF11009394BF3
:10304000C4F85831A4F85C514146484608F070FE77
:1030500099E8070004F5B27383E80700DFF8ECA0F5
:10306000CDF828A009230AA94046ADF82C3009F074
:1030700007F94146304605F0CDFD1F237822009325
:103080002821A1233846FFF7A7FE274BC4F8A0311B
:10309000D4F87031A4F8A451D3F8843039464846A6
:1030A000984799E8070004F5D67383E807001F4B9B
:1030B0001B6804F5DE752BB91D4B1E4A60211E48A6
:1030C0001FF028FB1D4B1B88072B03D81C4B194AEC
:1030D0006121F4E71B4B0721186800F007FC1A4A2E
:1030E0000346082128460FF0CDFA08230AA93846DE
:1030F000C4F8B851ADF82C30CDF828A009F0C0F8CC
:103100003046394605F086FD20460DB0BDE8F08F0B
:10311000B84802083450020810480208A0480208C3
:10312000852D000800D0FFFF00E1FFFFB828012037
:10313000B8460208BA47020835470208BC280120F1
:103140007C470208C4280120054802087440020890
:10315000704770477047704730B4C2684468551074
:10316000034604EB6200D20748BF62599B6830BC3B
:1031700048BFD35818470346406830B19A681AB917
:10318000D86800F0010070470120704710B5102189
:1031900004461EF079FB204610BD10B54FF40B71AC
:1031A00004461EF071FB204610BD00F5BC73994229
:1031B00070B504460D4603D10BF0F8FEFFF740FB57
:1031C00004F5D6739D4205D123682046DB6ABDE82D
:1031D0007040184770BD00000022C0E90122C0E91C
:1031E0000322C0E90522C0E907224FF480728284DD
:1031F000014A0260704700BFF04802082DE9F04F15
:1032000004468FB0274600250DF05CFDB54BE56305
:1032100047F8403B2622294638461FF082FC3846B4
:10322000FFF7DAFFB04B236404F16C0AFF2304F1CB
:1032300098094FF6FF760CA984F866305046A566CB
:1032400004F1E008ADF8306008F0C8FA4846FFF72E
:1032500019FE4046FFF716FEDFF8C0B2C4F8E0B032
:1032600004F596731846C4F828510393FFF70AFE35
:1032700004F5BC73262229461846C4F82CB1C4F8BC
:10328000745104931FF04DFC0498FFF7A5FF4FF015
:10329000010384F89C31954BC4F8783104F5D6735A
:1032A000A4F8A661A4F8A86184F8AA611846C4F835
:1032B000A05184F8A451059309F0B0FA8C4BC4E9ED
:1032C00087348C4B4FF4A07B2A46C4E989353846B5
:1032D000CDF800B0F0232946FFF77EFD261D4FF004
:1032E0007F433946A366304605F094FC4FF0040353
:1032F00050460CA9ADF8303009F059F9F0232A46B0
:103300005046CDF800B02946FFF766FD50462946E5
:1033100008F01FFA5146304605F07CFC06AF092242
:1033200048467B214FF0FF3BFFF749FD49463846B1
:10333000C4F8C8B0A4F8CC5008F0FAFC97E807002D
:1033400004F1D40383E807006B4B0C9348464FF01D
:1033500001030CA9ADF8343008F092FF494630461D
:1033600005F058FC25231B2200938F21452340465E
:10337000FFF732FDD4F8E030C4F810B1D3F8843050
:10338000A4F8145141463846984797E80700DFF8FB
:1033900090A104F58E7383E80700DAF8003004F595
:1033A000FA792BB9554B564A602156481FF0B2F9AD
:1033B000554B1B88022B03D8544B514A6121F4E72B
:1033C000534B0221186800F091FA524A03460A2131
:1033D00048460FF057F9484AC4F828910CA94046CE
:1033E0004FF003090C92ADF8349008F049FF4146C4
:1033F000304605F00FFC33237722039800933621E3
:103400008423FFF7E9FC444BC4F85C31D4F82C3139
:103410000399D3F88430A4F860513846984797E868
:10342000070004F5B47383E80700DAF8003004F508
:103430000277002BB6D034490B88042BBCD9344B0F
:103440000421186800F052FA324A03460A2138462D
:103450000FF018F9284A0398C4F874710CA90527CD
:103460000C92ADF8347008F00BFF0399304605F06C
:10347000D1FB049808220421FFF7A1FC06230CAA23
:103480000498ADF82C700BA904F50777ADF830302F
:1034900008F054FF0499C4F8A071304605F0BAFB57
:1034A0000598C9224621FFF78AFC4FF001030CAAB8
:1034B0000BA90598ADF82C30ADF8309008F03EFF20
:1034C0000598A4F8E451FFF79BFC3046C4E97ABBA9
:1034D0000599C4F8D47105F09DFB20460FB0BDE8F6
:1034E000F08F00BF70490208345002089C50020857
:1034F00058490208AB31000874400208B846020877
:10350000BA47020835470208BC2801207C47020858
:10351000C42801200548020800C8FFFF104802081F
:10352000B82801207047000030B5174D2C68BFF354
:103530005B8F14F001048FB022D128461EF0A6F94B
:10354000F0B13F230993114B0893114B07930123CB
:10355000CDE9054304930423CDE902431E230D491D
:10356000009315222523CDE90B440B480A940194BE
:10357000FFF726FB09481FF0EBF828461EF092F9EA
:1035800005480FB030BD00BFE4190020E47E0208FA
:10359000F87E02082C7C0208E81900202535000876
:1035A0007047000030B5174D2C68BFF35B8F14F0E7
:1035B00001048FB022D128461EF068F9F0B13F23F4
:1035C0000993114B0893114B114912480A94CDE904
:1035D000064301220423CDE90332322300930B2258
:1035E0003323CDE90B44CDE901440594FFF7E8FA14
:1035F00009481FF0ADF828461EF054F905480FB0F1
:1036000030BD00BF141A0020E87E0208FC7E0208CC
:10361000547D0208181A0020A135000870470000E8
:1036200030B5164D2C68BFF35B8F14F001048FB0DA
:1036300020D128461EF02AF9E0B13F230993104B10
:103640000893104B104911480A940122CDE9064312
:103650000423CDE903320A230093CDE90B44CDE9DD
:1036600001440594FFF7ACFA09481FF071F82846A9
:103670001EF018F905480FB030BD00BF441A0020F5
:10368000EC7E0208007F0208F07D0208481A002044
:103690001D3600087047000030B5174D2C68BFF389
:1036A0005B8F14F001048FB022D128461EF0EEF893
:1036B000F0B13F230993114B0893114B1149124864
:1036C0000A94CDE9064301220423CDE903321423F1
:1036D00000930F221823CDE90B44CDE90144059452
:1036E000FFF76EFA09481FF033F828461EF0DAF8A3
:1036F00005480FB030BD00BF741A0020F07E0208EC
:10370000047F0208007E0208781A0020953600081F
:103710007047000030B5164D2C68BFF35B8F14F076
:1037200001048FB020D128461EF0B0F8E0B13F234D
:103730000993104B0893104B104911480A94012229
:10374000CDE906430423CDE9033228230093CDE9D4
:103750000B44CDE901440594FFF732FA09481EF005
:10376000F7FF28461EF09EF805480FB030BD00BF99
:10377000A41A0020F47E0208087F0208D47E020802
:10378000A81A002011370008002070470020704759
:103790000EB403B503AB002153F8042B01930CF0D6
:1037A00079FB02B05DF804EB03B070470CB407B5C9
:1037B00004AB53F8042B01930CF06CFB03B05DF8E1
:1037C00004EB02B070470000436C10B5044673B3BD
:1037D000038F2BB9184B194AC52119481EF09AFFBF
:1037E000C38E00EB43035B8C0BB30EF0A2F9238F67
:1037F000012B03D8134B144ACB21EEE7E28E531C66
:103800009BB2092B194688BFA3F10A0104EB4101C1
:1038100040F63F10498C814209D10A2B04EB420249
:1038200028BF002304EB4303508C58845184204666
:10383000BDE810400EF080B8A0490208A94902086E
:10384000544A02089E4A0208AC4A02080EF03BB8ED
:1038500010B586B002AC84E806001A460AAB0593A0
:103860000193099B00932146089B0AF021FF06B0B3
:1038700010BD000038B518BB124B13481C68134923
:10388000B4B1226822440260626822440A60A268DD
:1038900014440F4B00221A8000F038F8054600F05F
:1038A00033F80C4B1C600C4B1D600C4B188007E070
:1038B0000B4B03600B4B0B600B4B1C68002CE8D1CF
:1038C00038BD00BFE01A0020D81A0020D41A00200A
:1038D000DC1A0020B8280120C0280120BC280120C3
:1038E000387F02080C7F0208807F0208044B1B68A7
:1038F00053F82100034B1B6803EB4000704700BFE7
:10390000D41A0020D81A00200B20704700487047B6
:10391000E41A002010B5FFF7BFFE074C2060FFF748
:10392000F9FE6060FFF77CFEA060FFF7FDFDE06040
:10393000FFF738FE206110BDE41A002010B5002406
:1039400004600C6014601C6010BD704710B54FF42B
:10395000AE7104461DF098FF204610BD10B5044618
:10396000D0F8580100F038F82046BDE810400BF0C0
:10397000C7BB000010B50446FEF71EFF014B2360D5
:10398000204610BD884B020800224FF0FF31C0E9ED
:103990000022C0E902220161027570474068704749
:1039A0008068704700697047027D012A05D1416037
:1039B000006810B103689B68184770478160006811
:1039C00010B10368DB6818477047C160006810B128
:1039D00003681B6918477047F7B50569594EC368F6
:1039E00001930446043530686F0003F0B6F928B13E
:1039F000002330681A4601A903F07FF9019B524861
:103A0000002BB8BF00234FF000024FF40051B8BFA5
:103A1000019300F0E7FE4C4800224FF4804100F093
:103A2000E1FE4A480022202100F0DCFE4748002247
:103A3000402100F0D7FE019B002B17DDBB4215DCB7
:103A4000414801224FF4005100F0CCFE3E480022D4
:103A50004FF4804100F0C6FE3C480022202100F0D7
:103A6000C1FE3A480022402100F0BCFE019BBB424F
:103A70004FEA850617DDB34215DC334801224FF4C7
:103A8000005100F0AFFE304801224FF4804100F0B9
:103A9000A9FE2E480022202100F0A4FE2B4800227F
:103AA000402100F09FFE019B0622B34202FB05F578
:103AB00017DDAB4218DC244801224FF4005100F01E
:103AC00091FE214801224FF4804100F08BFE1F48F7
:103AD0000122202100F086FE1C480022402100F037
:103AE00081FE019BAB4215DD174801224FF40051C6
:103AF00000F078FE144801224FF4804100F072FE7D
:103B000012480122202100F06DFE104801224021C0
:103B100000F068FE237D012B11D101992046FFF7AB
:103B200054FF01996368994202DD2046FFF73CFF8C
:103B30000199A368994202DD2046FFF73FFF03B0D9
:103B4000F0BD00BF7017002000180240000C0240BA
:103B50000161006810B103685B691847704701751F
:103B600070477047043870477047704710B5102190
:103B700004461DF089FE204610BDA0F10400F5E7C3
:103B800010B5044600218068FFF7E9FFA068FFF741
:103B900007FF0146E068BDE8104000F04DB8C0687E
:103BA00000F04AB8A0F10400FFF7F9BF10B584682F
:103BB0002046FFF7F7FE41422046BDE81040FFF7E0
:103BC000C7BFA0F10400FFF7F1BF704770470000C6
:103BD00000228260024A026028324260C16070475F
:103BE000DC4B020880680021FFF7E8BE7047C06B1D
:103BF000FFF7F8BF10B5034B03600446FFF754F816
:103C0000204610BD284C020810B50446FFF7F2FF0D
:103C100020464FF4EE711DF037FE204610BD000027
:103C200010B50446FFF750F9014B2360204610BD44
:103C3000284C0208FFF739B810B50B460446064A6F
:103C4000082100F5DE700EF01DFD04F5B870BDE82A
:103C500010400CF049BA00BF1C4C020870470438F1
:103C600070477047704710B5102104461DF00CFED8
:103C7000204610BDA0F10400F5E7C06800F058B878
:103C8000A0F10400FFF7F9BF38B5044601218068B0
:103C9000FFF765FFA068FFF783FE0546A068FFF702
:103CA0007DFE0146E06800F043F8E0682946BDE883
:103CB000384000F04FB8C06800F04CB8A0F10400E4
:103CC000FFF7F9BF7047704700228260024A026026
:103CD00028324260C1607047604C02088068002151
:103CE000FFF762BE7047C06BFFF7F8BF10B5034B1C
:103CF00003600446FFF72DFA204610BDA84C0208C9
:103D000010B50446FFF7F2FF20464FF40B711DF08B
:103D1000BBFD204610BD000010B50446FFF76EFA4B
:103D2000014B2360204610BDA84C0208FFF712BAD1
:103D300010B50B460446064A0A2100F502700EF043
:103D4000A1FC04F59670BDE810400CF0CDB900BFA1
:103D50001C4C020810B50B460446064A0A2100F521
:103D6000FA700EF08FFC04F1E000BDE810400CF09A
:103D7000BBB900BF1C4C0208F02070474FF4A07084
:103D800070472920FDF7DCBF2820FDF7D9BF08B513
:103D9000FDF7AAFFCA20FDF7D3FFC320FDF7B4FF4C
:103DA0000820FDF7B1FF5020FDF7AEFFCF20FDF753
:103DB000C7FF0020FDF7A8FFC120FDF7A5FF3020B9
:103DC000FDF7A2FFED20FDF7BBFF6420FDF79CFF90
:103DD0000320FDF799FF1220FDF796FF8120FDF7E4
:103DE00093FFE820FDF7ACFF8520FDF78DFF002055
:103DF000FDF78AFF7820FDF787FFCB20FDF7A0FFB6
:103E00003920FDF781FF2C20FDF77EFF0020FDF714
:103E10007BFF3420FDF778FF0220FDF775FFF720C8
:103E2000FDF78EFF2020FDF76FFFEA20FDF788FFEA
:103E30000020FDF769FF0020FDF766FFB120FDF7C8
:103E40007FFF0020FDF760FF1B20FDF75DFFB62020
:103E5000FDF776FF0A20FDF757FFA220FDF754FF7C
:103E6000C020FDF76DFF1020FDF74EFFC120FDF7CC
:103E700067FF1020FDF748FFC520FDF761FF4520D3
:103E8000FDF742FF1520FDF73FFFC720FDF758FF64
:103E90009020FDF739FF3620FDF752FFC820FDF7CF
:103EA00033FFF220FDF74CFF0020FDF72DFFB0207F
:103EB000FDF746FFC220FDF727FFB620FDF740FFC4
:103EC0000A20FDF721FFA720FDF71EFF2720FDF7A1
:103ED0001BFF0420FDF718FF2A20FDF731FF00200B
:103EE000FDF712FF0020FDF70FFF0020FDF70CFF8C
:103EF000EF20FDF709FF2B20FDF722FF0020FDF743
:103F000003FF0020FDF700FF0120FDF7FDFE3F202D
:103F1000FDF7FAFEF620FDF713FF0120FDF7F4FE92
:103F20000020FDF7F1FE0620FDF7EEFE2C20FDF748
:103F300007FFC820FDF752FF2620FDF701FF0120F3
:103F4000FDF7E2FEE020FDF7FBFE0F20FDF7DCFEB3
:103F50002920FDF7D9FE2420FDF7D6FE0C20FDF721
:103F6000D3FE0E20FDF7D0FE0920FDF7CDFE4E203A
:103F7000FDF7CAFE7820FDF7C7FE3C20FDF7C4FE22
:103F80000920FDF7C1FE1320FDF7BEFE0520FDF759
:103F9000BBFE1720FDF7B8FE1120FDF7B5FE00208F
:103FA000FDF7B2FEE120FDF7CBFE0020FDF7ACFEF1
:103FB0001620FDF7A9FE1B20FDF7A6FE0420FDF745
:103FC000A3FE1120FDF7A0FE0720FDF79DFE312086
:103FD000FDF79AFE3320FDF797FE4220FDF794FE91
:103FE0000520FDF791FE0C20FDF78EFE0A20FDF75F
:103FF0008BFE2820FDF788FE2F20FDF785FE0F2081
:10400000FDF782FE1120FDF79BFEC820FDF7E6FEBE
:104010002920FDF795FEBDE808402C20FDF790BE55
:1040200008B5FDF761FE0321D320FDF7A5FE80B2A0
:1040300008BD10B5C4B2022203212046FDF70AFED6
:104040000A20FDF74FFE204600220321FDF702FE65
:10405000BDE810400220FDF745BE38B50446E4B285
:10406000FDF7F6FD00212046FDF70CFE0121054677
:104070002046FDF707FE40EA052080B238BD10B5A6
:10408000C4B240212046FDF7FDFD030607D54C21B3
:104090002046FDF7F7FD003818BF012010BD0122B2
:1040A0004B212046FDF7D6FD204600224B21FDF78F
:1040B000D1FD0020F2E773B50423C4B20E461546C5
:1040C000D7210DEB03022046FDF7F6FD019B1BBA3D
:1040D0001A0DC3F30B23328020462B8001224B2183
:1040E000FDF7B8FD00224B212046FDF7B3FD02B0DD
:1040F00070BD000010B50A4A1378984204460DD0EE
:10410000517888420AD00BB141B90123D454FDF74C
:104110009FFD2046BDE81040FFF78BBF10BD00BFDC
:10412000F81A002010B5C4B209212046FDF7AAFDF7
:1041300040F00102D2B220460921BDE81040FDF74F
:1041400089BD10B5C4B209212046FDF79BFD0921A8
:1041500000F0FE022046BDE81040FDF77BBD38B5FB
:10416000C4B20D4620460A21FDF78CFD40EA050247
:10417000D2B220460A21BDE83840FDF76BBD10B52C
:104180000446FDF766FD20461F21FFF7E8FF2046A5
:10419000BDE81040FFF7C6BF38B5C4B20D46204693
:1041A0000A21FDF76FFD20EA0502D2B220460A215E
:1041B000BDE83840FDF74EBD10B50446FFF7C1FF1E
:1041C00020461F21BDE81040FFF7E6BF10B5C0B282
:1041D0000C460B21FDF756FD204010BD1F21FFF7B7
:1041E000F5BF0A46C0B20B21FDF734BD1F21FFF712
:1041F000F8BF38B5C4B20D4620461721FDF742FD81
:1042000020EA0502D2B220461721BDE83840FDF76A
:1042100021BD70B5C4B2064604212046FDF732FD2B
:10422000042100F0FB0205462046FDF713FD304651
:10423000F021FFF7DEFF05F0F80220460421FDF72C
:1042400009FD492220212046FDF704FD0220FDF74B
:1042500049FD204601222121FDF7FCFC20469A223F
:104260004121FDF7F7FC204601224A21FDF7F2FC2F
:10427000204601224B21FDF7EDFC204600224B2178
:10428000FDF7E8FC204601225621FDF7E3FC20461D
:1042900001225821FDF7DEFC204601224021FDF7D6
:1042A000D9FC2046FF220B21FDF7D4FCBDE870406D
:1042B0000220FDF717BD0000054BD3F8882042F41B
:1042C0007002C3F888204FF000629A60704700BF08
:1042D00000ED00E008B50B4B1A6842F400721A605A
:1042E0001A6842F480621A601A6842F480721A6096
:1042F000032000F02FF80020FDF7B2FFFDF77CFD52
:10430000002008BD003C0240034A044B11681B78A2
:104310000B441360704700BFFC1A0020840000208B
:10432000014B1868704700BFFC1A002038B50446DE
:10433000FFF7F6FF631C1CBF054B1B78054618BF33
:10434000E418FFF7EDFF431BA342FAD338BD00BFCB
:10435000840000200749CA6822F4E06203021204C4
:1043600003F4E063120C134343F0BF6343F40033E0
:10437000CB60704700ED00E0164B30B5DC68C4F34D
:104380000224C4F10703251D042B28BF0423062D96
:104390004FF0FF358CBF033C002405FA03F321EAFC
:1043A0000303A54022EA0502A340002843EA0203D2
:1043B000ACBF00F16040084A4FEA0313B8BF00F0F9
:1043C0000F00DBB2AABF00F56140135480F8003340
:1043D00030BD00BF00ED00E014ED00E0002807DB79
:1043E000044A4109012300F01F00834042F82130B4
:1043F000704700BF00E100E010B5044650B14379BA
:1044000003F0FF0213B90271FDF716FD012363717A
:10441000002010BD0120FCE710B5044630B390F831
:10442000393003F0FF021BB980F83820FDF71CFD7E
:1044300022686168022384F83930136823F440331A
:104440000B431360536BA16823F007030B435363C3
:10445000136CE16823F47F5323F03F030B43136491
:1044600000200123E06384F8393010BD0120FCE70F
:1044700070477047036870B55E681D68F2070446B0
:1044800014D5E90512D51A6822F480721A60C26B3D
:1044900042F00102C26301229A60042380F839309D
:1044A000002380F83830436903B19847B20616D527
:1044B000AB0414D523681A6822F400521A60202233
:1044C0009A60E36B43F00203E363042384F839301A
:1044D000002384F8383063690BB1204698473007D1
:1044E00016D5290514D523681A6822F400621A60CB
:1044F00008229A60E36B43F00403E363042384F827
:104500003930002384F8383063690BB1204698476E
:1045100072070BD56B0509D523681A6822F48062EF
:104520001A6004229A602046FFF7A2FFB00714D554
:10453000A90512D523681A6822F400721A600222B3
:104540009A60E36BE363012384F83930002384F835
:10455000383023690BB120469847F20613D5EB0497
:1045600011D523681A6822F480521A6010229A60CA
:10457000E36BE363012384F83930002384F8383097
:104580002046FFF776FF70BDF0B590F83820012A7D
:1045900003464FF002002BD0012283F8382083F825
:1045A000390003EB0112D2E90740556A174F44EA7C
:1045B0000040093C012C9CBF05F07F4210434FEAAC
:1045C00001161A6888BF40EA056091B9516A3940FE
:1045D00001435162012C9969916103D8596A21F014
:1045E0007F4191620122002083F8392083F838004E
:1045F000F0BDD16939400143D1619919012C896914
:1046000011619CBF25F07F451562EBE7F0FFFC00D0
:104610002DE9F74FDFF8BC916C4A00230D680124A7
:104620009C4004EA0506AC4340F0B7804D68032780
:1046300005F003044FEA430807FA08FC671E012F40
:104640006FEA0C0C34D8876807EA0C0ECF6807FABB
:1046500008F747EA0E078760476827EA060EC5F3A2
:1046600000179F4047EA0E074760C76807EA0C0E2D
:104670008F6807FA08F747EA0E07022CC76019D1BE
:104680004FEAD30A00EB8A0A03F0070BDAF820702E
:104690004FEA8B0B4FF00F0E0EFA0BFE27EA0E0EB1
:1046A0000F6907FA0BF747EA0E07CAF8207001E016
:1046B000032CDAD1076804FA08F407EA0C073C4334
:1046C00015F4403F046068D000240194D9F84440B8
:1046D00044F48044C9F84440D9F8444023F0030727
:1046E00007F1804704F4804407F59C37019403F0F8
:1046F000030C019CD7F808E04FEA8C0C0F2404FA55
:104700000CF42EEA040E324CA0424DD004F5806425
:10471000A0424BD004F58064A04249D004F58064E7
:10472000A04247D004F58064A04245D004F58064DF
:10473000A04243D004F58064A04241D004F58064D7
:10474000A0423FD004F58064A0423DD004F58064CF
:10475000A04214BF0A24092404FA0CF444EA0E040B
:10476000BC609468F74315F4801F0CBF3C40344391
:104770009460D46815F4001F0CBF3C403443D460EF
:10478000546815F4003F0CBF3C4034435460146837
:10479000ED0354BF3C40344314600133102B7FF4CD
:1047A0003DAF03B0BDE8F08F0024D5E70124D3E787
:1047B0000224D1E70324CFE70424CDE70524CBE787
:1047C0000624C9E70724C7E70824C5E7003C0140E1
:1047D00000000240003802400369194214BF012062
:1047E000002070470AB1816170470904FBE7436903
:1047F00001EA030221EA030141EA024181617047B3
:1048000001684B6913F480634FF0000210D06FF41D
:1048100080634B612023026380F83D3080F83E20A6
:10482000036C80F83C2043F00403036401207047CC
:10483000184670472DE9F84606460F4691461D4634
:104840004FEA114A3368BAF1010F0CBF5C699C69E9
:1048500027EA0404A4B2B4FA84F46409A14501D09F
:10486000002025E06A1CEED0FFF75AFD089BC01A15
:10487000A84201D8002DE5D13368BAF1010F0CBF71
:104880005B699B6927EA03039BB2B3FA83F35B0975
:104890009945D7D100232022336386F83D2086F83E
:1048A0003E30326C86F83C3042F020023264012007
:1048B000BDE8F8862DE9F04104460F4616469846B5
:1048C0002568686927EA000080B2C0B16B695A05A3
:1048D00017D52B6843F400732B606FF480636B6112
:1048E00020220023236384F83D2084F83E30236C8B
:1048F00043F004032364002384F83C300120BDE826
:10490000F081731CDDD0FFF70BFDA0EB0800B04277
:1049100001D8002ED4D123685A6927EA020292B244
:10492000002ACDD000232022236384F83D2084F880
:104930003E30236C1343DDE770B504460D46164642
:1049400023685B691B0601D500201EE02046FFF7A7
:1049500057FFC8B96A1CF3D0FFF7E2FC801BA842DE
:1049600001D8002DECD123685B6913F08003E7D1F7
:104970002022236384F83D2084F83E30226C84F8A2
:104980003C3042F020022264012070BD2DE9F0434A
:104990001546026885B0DDE90C789946136843F442
:1049A000807313600E463B46CDF8008000224FF026
:1049B00001110446FFF73EFF236838B11B68DB0591
:1049C00002D54FF400732364032620E006F0FE06B0
:1049D0001E611A4943463A462046FFF76BFFA8B9C5
:1049E000236803905A6903929B69039342463946B0
:1049F0002046039BFFF7A0FF064660B1236C042B03
:104A000001BF2268136843F4007313600126304627
:104A100005B0BDE8F083B9F1010F236802D1EDB212
:104A20001D61F4E72A0A1A61394642462046FFF71B
:104A300083FF0028E2D12368F1E700BF02000100F4
:104A40002DE9FF479A46036815461A6842F48062CA
:104A50001A601A68DDE90C7842F480721A600E461A
:104A60003B46CDF8008000224FF001110446FFF7CD
:104A7000E1FE236838B11B68DB0544BF4FF40073C7
:104A80002364032021E05FFA86F906F0FE061E612A
:104A90002B4943463A462046FFF70CFFA0B923684E
:104AA00003905A6903929B69039342463946204614
:104AB000039BFFF741FF58B1236C042B01BF226811
:104AC000136843F400731360012004B0BDE8F0875D
:104AD000BAF1010F23681AD1EDB242461D61394681
:104AE0002046FFF729FF02460028E5D121680B6820
:104AF00043F480730B602046CDF800803B464FF0B6
:104B00000111FFF797FE226860B11368B4E72A0A23
:104B10001A61394642462046FFF70EFF0028CBD1E6
:104B20002368D9E749F001031361054943463A4632
:104B30002046FFF7BFFE003818BF0120C5E700BFC1
:104B40000200010070B504460D46164623685B69F5
:104B50005B0701D500201EE02046FFF751FEC8B9D3
:104B60006A1CF3D0FFF7DCFB801BA84201D8002DA4
:104B7000ECD123685B6913F00403E7D1202223639F
:104B800084F83D2084F83E30226C84F83C3042F0BA
:104B900020022264012070BD70B504460D46164601
:104BA00021684B6913F0400301D0002011E04A69ED
:104BB000D2060FD56FF010024A612022236384F8D9
:104BC0003D2084F83E30236C2364002384F83C307D
:104BD000012070BDFFF7A4FB801BA84201D8002D67
:104BE000DED123685B6913F04003D9D1202223630F
:104BF00084F83D2084F83E30236C1343E4E7000042
:104C000070B5044608B9012070BD90F83D3003F03E
:104C1000FF021BB980F83C20FDF748F9242384F8F3
:104C20003D3023681A6822F001021A601A6842F4C3
:104C300000421A601A6822F400421A6000F078FEFE
:104C40003F4B65689D4294BF3E4B3F4B98428CBFA3
:104C500000230123002BD6D12268394E51683B4BEB
:104C6000B0FBF3F321F03F011943B542516088BF17
:104C70004FF49676116A88BF734321F03F0184BFD9
:104C80004FF47A76B3FBF6F301330B431362D16929
:104C9000431E2B4821F44F41854221F0FF0132D8B9
:104CA0006D0040F6FC70B3FBF5F30133034242D0D4
:104CB000C3F30B031943D161D4E9073011680343EF
:104CC00021F0C0010B4313609168D4E9030321F480
:104CD0000341034321F0FF010B439360D4E9053006
:104CE000D168034321F0FF010B43D360136843F005
:104CF0000103136000202023206484F83D302063EA
:104D000084F83E0080E7A06850B905EB4505B3FB89
:104D1000F5F30133C3F30B037BB143F40043C9E75D
:104D200019206843B3FBF0F30133C3F30B0323B142
:104D300043F44043BEE70423BCE70123BAE700BFC6
:104D4000A08601007F841E00FF083D0040420F0046
:104D50002DE9F743044699460C9E0F469046FFF70F
:104D6000DFFA94F83D30202B054603D0022003B033
:104D7000BDE8F08300903C49192301222046FFF74B
:104D800059FD0028F2D194F83C30012BEED0206878
:104D9000012384F83C300368D9075EBF036843F001
:104DA00001030360036823F400630360212384F894
:104DB0003D30402384F83E30002323640A9B636225
:104DC000BDF82C306385638D2385284BE362424612
:104DD000CDE900654B4639462046FFF7D7FD002850
:104DE0002AD00120C3E7FFF7A7FD40B1236C042BB5
:104DF00001BF2268136843F400731360F1E7636A2C
:104E000027681A4612F8011B39616262628D218D92
:104E1000013A92B262857A69481E80B252072085B3
:104E20000AD548B15A783A6102336362638D013B17
:104E300002399BB221856385238D2A46314620465F
:104E4000002BD0D1FFF77EFE0028CFD12268136857
:104E500043F400731360202384F83D3084F83C0051
:104E600084F83E0083E700BF020010000000FFFF4F
:104E70002DE9F043044687B09946109F0D469046B1
:104E8000FFF74EFA94F83D30202B064604D0022559
:104E9000284607B0BDE8F08300907A491923012223
:104EA0002046FFF7C7FC0028F1D194F83C30012BD5
:104EB000EDD02068012384F83C300368DB075EBF37
:104EC000036843F001030360036823F40063036095
:104ED000222384F83D30402384F83E3000232364AD
:104EE0000E9B6362BDF83C306385638D2385664B02
:104EF000E3622946CDE900764B4642462046FFF75D
:104F00009FFD054608B10125C2E7228D2368B2B98D
:104F100002905A6902929A690292029A1A6842F4BD
:104F200000721A60DFF86481238D002B2CD12022BF
:104F300084F83D2084F83C3084F83E30A8E7012A0C
:104F40000AD11A6822F480621A6003905A690392A7
:104F50009A690392039AE1E7022A0ED11A6822F4B1
:104F600080621A601A6842F400621A6004905A69FA
:104F700004929B690493049BD4E705905A690592B7
:104F80009B690593059BCDE7032B56D8012B15D1C3
:104F9000324639462046FFF7FFFD0028B3D123688B
:104FA0001A69636A1A70636A01336362238D013B75
:104FB0002385638D013B9BB26385B5E7022B009689
:104FC0003B464FF000024146204619D1FFF732FC24
:104FD000002898D123681A6842F400721A601A698E
:104FE000636A1A70626A531C6362238D013B2385D6
:104FF000638D013B9BB2638523681B695370D2E7C5
:10500000FFF718FC024600287FF47DAF236819687B
:1050100021F4806119601969636A1970636A013348
:105020006362238D013B2385638D013B9BB26385C6
:10503000414600963B462046C8E732463946204660
:10504000FFF7AAFD00287FF45EAF23681A69636A40
:105050001A70628D616A013A92B24B1C62852268B5
:105060006362238D5069013B9BB2400723857FF526
:105070005BAF032B02BF136823F4806313601369D3
:105080004B7090E7020010000000FFFF04000100D9
:1050900010B590F83D30202BDCB216D1242380F8D7
:1050A0003D3003681A6822F001021A605A6A22F041
:1050B00010025A625A6A114359621A6842F0010298
:1050C0001A6080F83D40002010BD0220FCE730B59A
:1050D00090F83D30202BDCB216D10268242380F8F2
:1050E0003D30136823F001031360556A4FF6F073E7
:1050F0002B400B439BB25362136843F001031360D0
:1051000080F83D40002030BD0220FCE70068D1F867
:1051100000C0D201843283182DE9F043C6685D686F
:105120004C68D1F8189005F470455D60C5680CF1C5
:105130000107C5F30B45C6F30B463D44264445EA3B
:1051400006455D60C668CD68C6F30A062E449D68B4
:1051500005F470459D60C7688D68C7F30A0701357F
:105160003D4445EA06459D601D690E6925F0070529
:105170001D614FF0000E1E619D6991F8327091F82B
:105180003180C3F818E091F8305045EA096545EAE6
:10519000082545EA07459D615D6925F0FF055D61CC
:1051A0004D695D61DD6925F4E06525F00705DD6188
:1051B000D1E907573D43DD619D6A4D6AC3F828E098
:1051C0009D621EB3012E23D0B51E022D22D9072EBB
:1051D00014BF01250225DE6A06F0E026DE62A4EB9C
:1051E0000C048E6AC96A6C436E43033444EA064475
:1051F000DC621C6B24F4FF6424F007041C63196355
:10520000835843F001038350BDE8F0830425E2E7AF
:105210000325E0E70225DEE738B50446002863D021
:1052200090F8A13003F0FF021BB980F8A020FCF732
:1052300099FE022384F8A13023689A6922F0704213
:105240009A61D4E901200243E06899690243206928
:1052500002430A439A619A68244960690A409A6045
:105260009A6842EA0042A06902439A60DA68E069FB
:105270000A40DA60DA6842EA0042206A0243DA60F1
:105280001A69606A0A401A611A6942EA0042A06A11
:1052900002431A615A690A405A615A69E16A42EA4C
:1052A0000142216B0A435A61DA6A94F8350094F896
:1052B000361002F07F42DA62DD6A94F834202A4325
:1052C00042EA002242EA0142DA625A6B42F00602E6
:1052D0005A639A6942F001029A6100200123C4F8DE
:1052E000A40084F8A13038BD0120FCE700F800F0EC
:1052F00070477047036870B59E6B5D6B720704461C
:1053000014D5690712D55A6B22F004025A6304229D
:10531000DA63D0F8A43043F00103C0F8A4300023CE
:1053200080F8A12080F8A030FFF7E2FFB20716D581
:10533000AB0714D523685A6B22F002025A6302228B
:10534000DA63D4F8A4301343C4F8A430042384F8F7
:10535000A130002384F8A0302046FFF7C9FFF007F2
:1053600010D5E9070ED523685A6B22F001025A6363
:105370000122DA63002384F8A12084F8A0302046BB
:10538000FCF710F9320711D52B070FD523685A6B9C
:1053900022F008025A630822DA63012384F8A1305C
:1053A000002384F8A0302046FFF7A3FF70BD2DE94D
:1053B000F04190F8A030012B06460F4694464FF07E
:1053C00002001FD04FF0010886F8A08086F8A100E7
:1053D00034240D4604FB02640FCD38340FC40FCDC6
:1053E0000FC40FCD0FC42B68236030466246394688
:1053F000FFF78CFE33680020C3F8248086F8A18074
:1054000086F8A000BDE8F08190F8A020012A0346AC
:105410004FF0020012D01A6883F8A100506B20F000
:105420000100506306480164516B41F00101516372
:105430000020012283F8A12083F8A000704700BF5C
:10544000006801402DE9F341044640B30368DE07DC
:1054500010D423689D075BD42368190700F19D8051
:1054600023685A0700F1BD80A369002B40F0248116
:1054700000202CE08D4B9A6802F00C02042A07D021
:105480009A6802F00C02082A0BD15B68590208D511
:10549000864B1B689A03DCD56368002BD9D10120A9
:1054A00015E06368814DB3F5803F13D12B6843F459
:1054B00080332B60FEF734FF7C4E054633689B0338
:1054C000C7D4FEF72DFF401B6428F7D9032002B094
:1054D000BDE8F081B3F5A02F04D12B6843F48023FD
:1054E0002B60E3E72A6822F480322A602A6822F4DB
:1054F00080222A60002BDDD1FEF712FF06462B68C2
:105500009F03A6D5FEF70CFF801B6428F7D9DDE7C3
:10551000664B9A6812F00C0F07D09A6802F00C02E2
:10552000082A11D15B685D020ED4604A136899079E
:1055300002D5E368012BB2D11368216923F0F80387
:1055400043EAC103136087E7E268594BB2B1012215
:105550001A60FEF7E5FE554D06462B689B0707D5FA
:105560002B68226923F0F80343EAC2032B6073E738
:10557000FEF7D6FE801B0228EFD9A7E71A60FEF7D8
:10558000CFFE4A4E054633689F077FF565AFFEF7AD
:10559000C7FE401B0228F6D998E76269444B82B1E6
:1055A0000122C3F8802EFEF7BBFE404E0546736F06
:1055B0009B073FF555AFFEF7B3FE401B0228F6D917
:1055C00084E7C3F8802EFEF7ABFE384E0546736FB6
:1055D0009F077FF545AFFEF7A3FE401B0228F6D9D3
:1055E00074E7324B1A6C12F0805228D101921A6C77
:1055F00042F080521A641B6C03F080530193019BAC
:1056000001272C4D2B68D8051BD5A368274D012BEE
:1056100027D12B6F43F001032B67FEF781FE234E4A
:10562000054641F28838336F9A0739D5002F3FF489
:105630001BAF1E4A136C23F08053136414E700273A
:10564000DFE72B6843F480732B60FEF769FE0646A4
:105650002B68D905D9D4FEF763FE801B0228F7D941
:1056600034E7052B04D12B6F43F004032B67D0E7FD
:105670002A6F22F001022A672A6F22F004022A67A9
:10568000002BCAD1FEF74CFE41F2883806462B6F3C
:105690009B07CBD5FEF744FE801B4045F7D915E7A5
:1056A000FEF73EFE401B4045BDD90FE700380240E3
:1056B0000000474200700040374DAA6802F00C021B
:1056C000082A3ED0022B354B4FF000021A662BD130
:1056D000FEF726FE06462B6899011FD4D4E907324F
:1056E0001343626A43EA8213E26A43EA0263A26AEC
:1056F0005208013A43EA02436B60284B264D0122CF
:105700001A66FEF70DFE04462B689A013FF5B0AE0F
:10571000FEF706FE001B0228F6D9D7E6FEF700FECC
:10572000801B0228D7D9D1E6FEF7FAFD04462B6884
:105730009B017FF59DAEFEF7F3FD001B0228F6D915
:10574000C4E6012B3FF4ABAE6B68E26903F4800161
:1057500091427FF4A4AE216A03F03F028A427FF4B3
:105760009EAE616A47F6C0721A40B2EB811F7FF4A9
:1057700096AEA26A520803F44031013AB1EB024FEF
:105780007FF48DAEE26A03F07063B3EB026F14BF77
:10579000012000209BE600BF003802400000474285
:1057A000134908B58B6803F00C03042B1CD0082B9D
:1057B0001CD14A684B68496813F4800314BF0D4834
:1057C0000D48C1F3881118BF002302F03F02A1FB6E
:1057D0000001FAF7ADFD064B5B68C3F301430133EB
:1057E0005B00B0FBF3F008BD0248FCE70248FAE7B3
:1057F0000038024000127A000024F4002DE9F04144
:105800000D46044610B90120BDE8F081434B1A68EB
:1058100002F00F028A4228D321688F072DD4C807CF
:1058200040D43E4B1A6802F00F02AA4265D82268A3
:1058300051076BD4130707D5394A2169936823F4BC
:10584000604343EAC1039360FFF7AAFF344B354A34
:105850009B68C3F30313D35CD840334B1860334BBE
:105860001868FCF7FDFC0020CEE7CAB21A701B686E
:1058700003F00F038B42C6D1CEE7294B11F0040F82
:105880001EBF9A6842F4E0529A600E0742BF9A68BF
:1058900042F460429A609A68A06822F0F0020243E3
:1058A0009A60BCE762681E4B012A1CD11B6813F486
:1058B000003FA8D01A4EB36823F003031343B3602C
:1058C000FEF72EFD41F288380746B368626803F0A0
:1058D0000C03B3EB820FA4D0FEF722FDC01B4045A2
:1058E000F3D9032090E7911E01291B6802D813F019
:1058F000007FDEE713F0020FDBE7EAB21A701B68E5
:1059000003F00F03AB427FF47EAF90E70449E068F9
:105910008B6823F4E05303438B608BE7003C024029
:1059200000380240E04C020880000020880000207F
:10593000044B054A9B68C3F38223D35C034A106877
:10594000D840704700380240D84C02088000002040
:105950000F2303600B4B9A6802F0030242609A68BF
:1059600002F0F00282609A6802F4E052C2609B6822
:10597000DB0803F4E0530361034B1B6803F00F03E0
:105980000B60704700380240003C0240036813F08F
:10599000430FF7B5044640F08880236813F00C0FDE
:1059A00045D08C4B8C4D00221A67FEF7B9FC064699
:1059B0002B68990000F1CB8021684A0715D5D4E9FE
:1059C0000403D5F888201B0602F0E04243EA801366
:1059D0001343C5F88830D5F88C30226A23F4F85385
:1059E000013A43EA0223C5F88C300B0714D57A4AF2
:1059F000A369D2F8881020691B0701F0706143EA9F
:105A000080130B43C2F88830D2F88C30616A23F4DB
:105A100040330B43C2F88C306E4B6F4E01221A6735
:105A2000FEF77EFC054633689F0040F197802368AF
:105A3000980634D500230193674B684D1A6C42F0E9
:105A400080521A641B6C03F080530193019B2B68F6
:105A500043F480732B60FEF763FC06462B68D80581
:105A600040F183805C4DA26A2B6F13F4407340F0C9
:105A70008380A36A03F44072B2F5407F564A40F037
:105A80009E80916823F0704021F4F81120F440705A
:105A900001439160116FC3F30B030B43136723683A
:105AA000DB0600F1908000204FE04A4B4A4E002276
:105AB0009A66FEF735FC054633681F013FD421681E
:105AC000C80741BFD4E901231B0743EA8213C6F884
:105AD00084308A0715D5404AE368D2F884006568A7
